:0200000480007A
:100000007370043073504030971100109381819CBD
:1000100017010110130101FF970200009382822E45
:100020007390523073F0533073F0023217050000B2
:100030001305050997050000938585086300B5023F
:10004000176600001306460363FAC5008322050005
:1000500023A0550011059105E3EAC5FE17650000D0
:1000600013058501970500109385C5F91386418610
:1000700063FAC5008322050023A0550011059105F0
:10008000E3EAC5FE13854186938501A36377B50036
:10009000232005001105E36DB5FEC92917150000E1
:1000A000130585ACEF00502BEF00302F552B014589
:0A00B00081453920EF00806A01A0AD
:1000C000011122CC17650000130545963704041072
:1000D00026CA4AC84EC606CE8144EF1020619769F1
:1000E00000009389A98F1309840204C02686A28583
:1000F0004E851104EF10E04D8504E31824FF3727E7
:1001000004105C438566176500001305E595D58FDF
:100110005CC337140410EF10605D17690000130909
:10012000E98B930484021040A2854A851104EF10E4
:10013000404AE31A94FE3706000C8146B728000CAB
:10014000054813057003732740F193D756001E0727
:1001500046978A07BA978C433317D8001347F7FF9F
:100160006D8F98C32320060085061106E39DA6FC2B
:10017000F32740F13707200CB207BA9723A00700F6
:10018000170600001306265E854513056003492106
:1001900073600430B7270410DC43858B8DE3B727E9
:1001A000041098438566558F98C33707041098CF7D
:1001B0003717041098D31307800298D701A017654A
:1001C00000001305E58DEF1060521305C012D12415
:1001D000F9B7A54723A2F1867D55828073005010A0
:1001E000F5BF7D15854763E6A7008967DCC101453A
:1001F0008280A54723A2F1867D55828005458280B5
:1002000005458280D94723A2F1867D55828001452C
:10021000828019C17D55828041113735011022C479
:1002200006C62E84C5222300A400B2402244054500
:1002300041018280170700101307C7F91C439386FA
:1002400001A33E95636BD50097F600109386865BFD
:1002500063E5A60008C33E858280FD573E85828007
:10026000011122CC4EC606CE26CA4AC82E84B289B7
:10027000EF10604929C533093401A9446399090085
:100280003DA0050437350110AD22630224038345E8
:100290000400E39895FEB54537350110992A83454A
:1002A0000400373501100504A922E31224FF4E850E
:1002B000F2406244D2444249B249056182807D5590
:1002C000C5BF0000000000000000000000000000AA
:1002D000000000000000000000000000000000001E
:1002E000000000000000000000000000000000000E
:1002F00000000000000000000000000000000000FE
:100300005D7106C012C216C41AC61EC82ACA2ECCF7
:1003100032CE36D03AD23ED442DC46DEF2C0F6C20D
:10032000FAC4FEC6F322103416D8F322203416D6AF
:10033000732520348A85A124C25273901234B2529C
:100340007390223482401242A2423243C243524549
:10035000E245724682561257A2576258F258064E2C
:10036000964E264FB64F61617300203000000000AA
:10037000000000000000000000000000AA8731C15A
:1003800005476306E6020947630BE600014511C213
:100390008280985F93C5F5FFF98D8CDF8280585D70
:1003A00001454D8FD8DF985FD98D8CDF8280545DF9
:1003B00013C7F5FF0145758FD8DF985FD98D8CDFA6
:1003C00082807D558280AA871DC1170700100327F0
:1003D000A7E0B355B7020145FD158CCF98471367C9
:1003E000170098C7D84713671700D8C782807D5574
:1003F000828019C51C41E3CF07FE0CC101458280F4
:100400007D55828019C55C41E3CF07FE13F5F70FD8
:1004100082801305F00F8280B7C7000203A787FF11
:1004200083A7C7FF411106C622C426C2BA8637C6B3
:100430000002032786FF8327C6FFF32400B0E38A68
:10044000E6FEB7C5000203A685FF83A6C5FF3304F9
:10045000E640F32700B0E368A4FEB3849740B3F509
:100460008402228681461395F500C581712633D614
:100470008402B2402244924441013E063295828079
:100480004111054506C6493FB240130540064101EA
:1004900061B7AA8541111306803E81463E05C5819C
:1004A00006C6992EB7C7000203A687FF83A6C7FF1B
:1004B000AA8837C800022E85032388FF8323C8FF3C
:1004C000B305C3403337B300B387D340998FE3E517
:1004D000A7FE6314F500E3E115FFB24041018280FD
:1004E000411122C42A84175500001305A53F06C6F2
:1004F000EF10C01FA285175500001305E53FEF1050
:10050000400DF3251034175500001305E53FEF109B
:10051000400CF3253034175500001305E53FEF106C
:10052000400B01A0411122C42A8417550000130575
:10053000A53F06C6EF10801BA285175500001305C6
:10054000A53BEF100009F3251034175500001305E3
:10055000A53BEF100008F32530342244B240175574
:1005600000001305653B41016F10A006B7B7C40436
:1005700093870740170700102320F7C68280411198
:100580009317450106C622C4D183635105022D4746
:100590006383E7048A0713874187BA979C4391C313
:1005A0008297B240224401454101828029462A8730
:1005B000AE86636BF6008A071386C189B2979C43A7
:1005C000EDD3B6853A85E9BF97070000938787F199
:1005D000B6853A85F1B7F32740F13707200CB2070B
:1005E0001107BA97804393076003E3EC87FA131768
:1005F00024009387818CBA979C4391C38297F327F9
:1006000040F13707200CB2071107BA9780C351BFDA
:100610009307600363E4A70413172500B707000CD2
:10062000BA978CC309C69387818CBA9790C37327F6
:1006300040F193575500B726000C8A07B6971E075E
:10064000BA97944305473315A700558D88C385672E
:100650009387078073A04730014582807D55828053
:10066000411106C622C4293DAA8705461704001079
:10067000130484B6B7050300372501101CC0FD39EB
:10068000F1659385052037350110353B175600007D
:100690001306C62A975500009385052B17550000B1
:1006A0001305452BEF00F072975500009385052D3B
:1006B000175500001305C52CEF00B0710C401755FD
:1006C00000001305252DEF00D070970600009386DB
:1006D00066E19387C1891387818C94C39107E39E58
:1006E000E7FE17070000130727E49387818C9386A2
:1006F000419A98C39107E39ED7FE938741879386DB
:10070000C18998C39107E39EF6FE3706000C814627
:10071000B728000C054813057003732740F193D7E1
:1007200056001E0746978A07BA978C433317D8009E
:100730001347F7FF6D8F98C3232006008506110627
:10074000E39DA6FCF32740F13707200CB24022447A
:10075000B207BA9723A0070041018280828082807D
:1007600082801386818018429356F701B307D70021
:10077000858B050718C2FD17638FD706411122C468
:1007800017550000130585223704041026C24AC0FD
:1007900006C61759000013096924EF003075930449
:1007A00084021040A2854A851104EF009062E31A8A
:1007B00094FE372704105C43856617550000130527
:1007C000A523D58F5CC337140410EF00307217597E
:1007D00000001309A920930484021040A2854A85D1
:1007E0001104EF00105FE31A94FEB24022449244D9
:1007F0000249410182808280AA88AE87328836858C
:10080000468363960620975600009386A62B63FFC7
:10081000C50A41676375E60A1307F00F3337C7004F
:100820000E073355E600AA9683C60600130500029C
:100830003697B306E540630BE500B395D70033D791
:10084000E8003318D600D98D3393D80093580801A7
:10085000B3D615031316080141829357030133F7EA
:1008600015033685B305D6024207D98F63FCB7005E
:10087000C2971385F6FF63E7070163F5B700138599
:10088000E6FFC2978D8F33F717034203135303011B
:10089000B3D71703420733636700B306F6023E86F9
:1008A000637BD30042931386F7FF6366030163748F
:1008B000D3001386E7FF4205518D81455DA83705BA
:1008C00000014147E36FA6F46147A1BF01E6054778
:1008D0003358C7024167637FE8081307F00F63735B
:1008E000070121453357A800BA9603C7060013062F
:1008F00000022A97B306E6406315E608B38707416E
:1009000085459358080113160801418213570301C6
:10091000B3F61703B3D71703C206558F330EF6028B
:100920003E85637CC70142971385F7FF6367070124
:100930006375C7011385E7FF42973307C741B37754
:10094000170342031353030133571703C20733E35B
:100950006700B306E6023A86637BD3004293130630
:10096000F7FF636603016374D3001306E7FF4205D4
:10097000518D8280370700014145E365E8F6614506
:1009800095B73318D80033D5E7003393D800B39721
:10099000D70033D7E800935808013366F700337760
:1009A000150393170801C1839355060133551503A9
:1009B00042074D8FB386A702AA85637CD700429772
:1009C0009305F5FF636707016375D7009305E5FF9E
:1009D0004297B306D74033F7160342064182B3D697
:1009E000160342073385D702B367C700368763FC17
:1009F000A700C2971387F6FF63E7070163F5A70017
:100A00001387E6FFC297C205898FD98DDDBD63E2EA
:100A1000D514416763FFE6021307F00FB335D70023
:100A20008E0533D5B600175700001307A7092A977C
:100A300003470700130500022E97B305E540631135
:100A4000E5020545E3E7F6F233B5C80013451500A6
:100A50000DB737070001C145E3E5E6FCE145D1B735
:100A60003358E600B396B6003368D80033D3E700B6
:100A7000935E0801B376D303B397B70033D7E8008A
:100A8000331EB6003366F70093170801C18313576E
:100A900006013353D303C206558F338F67021A857D
:100AA000637CE70142971305F3FF636707016375F2
:100AB000E7011305E3FF42973307E741B376D70316
:100AC0003357D703C2063383E70293170601C18366
:100AD000D58F3A8663FC6700C2971306F7FF63E77A
:100AE000070163F567001306E7FFC2974205C16E71
:100AF000518D9386FEFF13560E0113580501B387DF
:100B000067403373D500B376DE00330ED302B306ED
:100B1000D80213570E013303C30236931A973308D2
:100B2000C8026373D700769893560701369863E03E
:100B30000703E39407D9C167FD177D8F4207337E12
:100B4000FE00B398B80072978145E3F4E8E27D15A2
:100B5000ADB38145014531BDAA85814601460145B8
:100B60006F00D057411122C426C21754000013044D
:100B7000A4509754000093842450058C06C6098421
:100B800011E4B24022449244410182807D149317C3
:100B90002400A6979C438297E5B7411122C426C240
:100BA000175400001304444D975400009384C44C20
:100BB000818C4AC006C6898401496315990217547D
:100BC00000001304644B975400009384E44A818C22
:100BD00089840149631D9900B2402244924402492C
:100BE000410182801C40050911048297F9B71C401D
:100BF000050911048297F9BF797122D44AD052CCE9
:100C000056CA5AC806D626D24ECE3A8B2E8A32847F
:100C10003689C28A0147635806003707008033448B
:100C2000C7001307D0022380E70093F4F8FD930771
:100C300060048D466388F4009307500489466393EB
:100C4000F4000509D6879308C100130881004A877C
:100C5000D2852286EF00906293077004AA8963957B
:100C6000F40013761B0029CA93076004338B290113
:100C70006397F40203C7090093070003631EF7009C
:100C8000014681465285A285EF30904711C5054641
:100C9000B306264123A0DA0083A70A003E9B014643
:100CA00081465285A285EF30B04511E15AC613073F
:100CB0000003B24763E26703B2474257B25022547F
:100CC000B38737411CC392540259624AD24A424BFD
:100CD0004E85F249456182809386170036C623808F
:100CE000E700C1BF2300C500930725001307B0022A
:100CF00063D60500B305B0401307D002A300E5009A
:100D000025476352B70641111307F1003A88A948F5
:100D10001303300633E61503BA867D171306060360
:100D2000A38FC6FE2E86B3C51503E345C3FE938885
:100D3000E6FF93850503A30FB7FE3E864687636DE6
:100D4000070101476365180113071101158FBA9751
:100D50003385A740410182808345070005070506CA
:100D6000A30FB6FEE9BF930700032301F5009385A7
:100D7000050393074500A301B5003385A740828092
:100D8000197186DEA2DCA6DA2E84CAD8CED6D2D4D9
:100D9000D6D23A8ADAD0DECEE2CC3289B689E6CA39
:100DA000EAC8EEC6AA84EF10704F032C05006285D6
:100DB000EF005014032B040002DC834A84011377F4
:100DC0000B1083270A00AA8B79CB138747002320B7
:100DD000EA009C43081098433AD0D8433AD2984747
:100DE0003AD4DC473ED6EF40D00728C46CC4032A6F
:100DF000C40417F7FF0F1307E73E832C8404032D69
:100E00000700832D470093171A0085836A86EE86B4
:100E10006685BE853ECEEF40A06F49EDF2476A86FB
:100E2000EE866685BE85EF30B03E6355A00801466C
:100E300081466685D285EF30B03D63560500930745
:100E4000D002A301F40493077004175A0000130A98
:100E50006AD763F65701175A0000130AEAD6137BC4
:100E6000BBFF8D47232064011CC8014B4E87CA86F7
:100E70007018A2852685F92EFD5C631395177D55A4
:100E8000F6506654D6544659B659265A965A065BB9
:100E9000F64B664CD64C464DB64D096182809D0797
:100EA000E19B138787002320EA009843DC4338C482
:100EB0007CC435BF6686D2866685D285EF404065A4
:100EC00005C563560A009307D002A301F4049307F3
:100ED0007004175A0000130A6ACFE3F257F9175A41
:100EE0000000130AEACEA5BF5C407D5713FDFA0D42
:100EF0006393E70899475CC0544013670B403C1864
:100F00003EC0528693073103E68518C002C2D688D8
:100F1000130841032685CD3193077004D2552A8AE0
:100F2000631BFD00F55763C5F5005C4063D7B70848
:100F3000F91A93FAFA0F9307500663E55705FD1562
:100F40005686130504052EDA713B625785462A8BB7
:100F5000B307A7001CC863C5E6001840058B19C37A
:100F600085071CC883473103E38207F09307D0024B
:100F7000A301F404E5BD13077004E31FEDF6ADFF14
:100F8000854795BF93076006639BFA025C40635BED
:100F9000B0000CC881E71840058B09CF8507AE97D4
:100FA0001CC809A889E718408546058B19C3938694
:100FB000270014C82CCC014B75B7930A7006E25772
:100FC00063C9F5001C400CC8858BEDD793871500CD
:100FD000C1BF05476344B00009470D8FBA97C9B731
:100FE0001C4013F7074015E314485286CA8526852E
:100FF0008299E30695E91C40898B63980724F25790
:101000004844E35FF5E63E85A5BD13075006637DC2
:10101000571928446C4401468146EF30700E39E977
:101020008546175600001306E6BACA8526858299BA
:10103000E30795E55257E2576345F7001C40858B5F
:10104000DDDBDE866286CA8526858299FD57E30848
:10105000F5E2014A930AA4017D5BE257FD17E35CC8
:10106000FAF885465686CA8526858299E30965E1A0
:10107000050AE5B7D2576346F006854617560000C5
:10108000130646B5CA8526858299E30A95DFD257AD
:101090006257D98F81E71C40858BB1DFDE8662867F
:1010A000CA8526858299FD57E30BF5DC814A130B2F
:1010B000A401FD5BD257B307F04063CBFA00E256C0
:1010C0005286CA8526858299FD57E316F5F245BBFF
:1010D00085465A86CA8526858299E30275DB850A8C
:1010E000D1BF3C4CE25A63D35701BE8A63495007D3
:1010F000014B130DA401FD5D832C8405D68763D3BA
:101100000A008147B387FC406344FB065257E2570D
:101110006349F7061C40858BADE7E25A5257B38707
:101120009A41B38AEA4063D35701BE8A63445007A9
:10113000014A130BA401FD5B5257E257998F568762
:1011400063D30A000147998FE357FAEA85465A8626
:10115000CA8526858299E30475D3050AF1BFD68630
:101160005286CA8526858299FD57E313F5F801BB9F
:1011700085466A86CA8526858299E302B5D1050B24
:10118000A5BFDE866286CA8526858299FD57E3164D
:10119000F5F8F5B1D68633069A01CA852685829977
:1011A000FD57E317F5F8E1B9E25605476344D70068
:1011B000858BB5C785465286CA8526858299FD5A94
:1011C000E30F55CBDE866286CA8526858299E308C1
:1011D00055CB28446C4401468146EF3060721DC9EE
:1011E000E25613061A00CA85FD1626858299E30881
:1011F00055C9DA8613060405E9B585465686CA85BB
:1012000026858299E30D75C7050AE257FD17E34667
:10121000FAFEC5B7014A930AA401FD5BFDB78546F6
:101220005286CA8526858299E31595FD89B985463A
:101230005686CA8526858299E30365C5050A5C44FE
:101240007257998FE345FAFE5DBB014A930A9401F8
:101250007D5BF5B7797152CC9C493A8A984522D486
:1012600026D24ECE56CA06D64AD05AC85EC6AA89DB
:101270002E84B284B68A63D3E700BA879CC0034742
:10128000340419C385079CC01C4093F7070281C72B
:101290009C4089079CC00329040013796900631AE4
:1012A0000900130B9401FD5B5C449840998F634CDB
:1012B000F90483473404B336F0001C4093F7070267
:1012C000A5EB13063404D6854E85029AFD576303B9
:1012D000F5041C4011469840998B5444814463970F
:1012E000C700B384E64063D3040081441C4418481B
:1012F0006354F700998FBE94014969047D5B63983C
:101300002405014509A885465A86D6854E85029A48
:10131000631E75017D55B250225492540259F24910
:10132000624AD24A424BB24B456182800509ADBF49
:101330003307D40013060003A301C7040347540472
:1013400093871600A2978906A381E7049DBF85466F
:101350002286D6854E85029AE30E65FB050945B7C0
:10136000797122D426D24AD04ECE06D652CC56CA55
:101370005AC803C8850193078007AA842E8432893E
:10138000B68963EE0701930720069386350463ED63
:1013900007016305081C93078005630AF812930A86
:1013A00024042301040515A89307D8F993F7F70F30
:1013B0005546E366F6FE17560000130666848A0754
:1013C000B2979C43B29782871C43938A25049386E5
:1013D00047009C4314C32381F504854765A29C41C3
:1013E000084313F60708930545000DC21C410CC3C2
:1013F00063D807001307D002B307F040A301E40449
:10140000174600001306467D2948A1A013F60704DD
:101410001C410CC371DEC207C187D9BF90411C4378
:10142000137506089385470001C50CC39C4339A07A
:10143000137606040CC37DDA83D707001307F00682
:1014400017460000130646796304E80E2948A301F5
:101450000404584018C4634507000C40ED990CC0C3
:1014600099E3B68A19CFB68A33F70703FD1A329784
:10147000034707002380EA003E87B3D70703E375DD
:1014800007FFA147631EF8001C40858B91CB584095
:101490001C4863C7E70093070003A38FFAFEFD1AF9
:1014A000B386564114C84E87CA867000A285268529
:1014B00055337D5A631C450D7D55B25022549254CC
:1014C0000259F249624AD24A424B45618280A38264
:1014D000050517460000130626700C40084313F854
:1014E00005081C411105630D080208C313F7150018
:1014F00001C793E505020CC04148B1FB18401377C2
:10150000F7FD18C0A9B79C4193E707029CC1930758
:101510008007A302F404174600001306266D75BF6A
:1015200013F8050408C3E30308FCC207C1837DBFA9
:10153000214831BF90411C43CC49137806081385DC
:1015400047006306080008C39C438CC301A808C376
:10155000137606049C4375DA2390B7002328040011
:10156000B68A91B71C43D04181459386470014C386
:1015700083AA07005685EF10606301C53305554106
:1015800048C05C401CC8A301040431BF14485686FF
:10159000CA8526858299E30145F31C40898B8DE736
:1015A000B2474844E35BF5F03E8501BF8546568669
:1015B000CA8526858299E30165F1050A5C443247B4
:1015C000998FE345FAFEE9BF014A930A94017D5BD6
:1015D000F5B75D7122D406D62A842EDA32DC36DEE7
:1015E000BAC0BEC2C2C4C6C603A5C18019C51C4DBF
:1015F00089E72AC6EF10003432450C45541822867C
:1016000036CEEF20601DB2502254616182800111FC
:1016100026CA4AC806CE22CC4EC652C4AA842E89F7
:1016200009C51C4D99E3EF10E0309C4C804481E7E4
:101630002685EF102030974700009387E76C631CE6
:10164000F402C0408357C400A18BB1C71C48A1C796
:10165000FD59294A1C4483450900FD17B1E91CC402
:1016600063DE07062286A94526854520FD576308C7
:10167000F502294535A0974700009387E76A631470
:10168000F4008044C1B7974700009387E765E31BE8
:10169000F4FAC04445BFA28526851D2A55D97D553B
:1016A000F2406244D2444249B249224A05618280F2
:1016B0001CC4050963D70700184C63CBE700638996
:1016C00045011C401387170018C02380B70059B785
:1016D000228626851D28E31F35F7D1B71C401387C6
:1016E000170018C029472380E70061B7AA8503A522
:1016F000C18031BFAA8703C7070085076DFF338507
:10170000A7407D1582806FE0BFAF011122CC26CAB1
:101710004AC806CE4EC6AA842E89328409C51C4DFD
:1017200099E3EF102021974700009387E75D631B43
:10173000F406C0401C4C1CC48357C400A18BD9C301
:101740001C48C9C31C4808409379F90F1379F90F55
:101750001D8D5C486347F500A2852685EF10C00B00
:1017600035E51C440505FD171CC41C4013871700F4
:1017700018C0238037015C486389A7008357C400E1
:10178000858B89CBA9476317F900A2852685EF10C1
:10179000A0080DEDF2406244D244B2494A85424964
:1017A0000561828097470000938707586314F4000F
:1017B000804449B79747000093870753E31CF4F62A
:1017C000C0448DBFA285268521202DDD7D59D9B746
:1017D000411122C426C24AC006C683A4C1802A89F8
:1017E0002E8491C49C4C81E72685EF10A014974766
:1017F0000000938767516317F402C0408317C40049
:101800001397070193F687004183B5EA93760701A2
:1018100095EA25472320E90093E707042316F400FF
:101820007D5545A097470000938707506314F40047
:101830008044E9B7974700009387074BE310F4FC17
:10184000C0446DBF118B15C74C5891C99307440410
:101850006385F5004A85EF10905A232A04028357C6
:10186000C4002322040093F7B7FD2316F4001C489C
:101870001CC08357C40093E787002316F4001C485C
:1018800089EF8357C4001307002093F70728638666
:10189000E700A2854A85EF10C0268317C40013977E
:1018A000070193F6170041839DC254482324040086
:1018B000B306D04014CC1448014581E613770708DD
:1018C00021FFB24022449244024941018280937632
:1018D0002700014691E2504810C4F1BFAA88138541
:1018E00081861C4181EF1387419A18C113050000BE
:1018F000BA8709C51C412324F708BA87D8437D4815
:101900007D556346E804638D080203A887086300D9
:10191000080413152700429510C10323081005463B
:101920003316E6003363C300232068102320D50854
:1019300089466397D80083264810558E2322C81005
:10194000930617000A07D4C3BA978CC70145828053
:10195000011122CC1C49804906CE26CA4AC84EC66F
:1019600052C456C263CA87107D1413162400138A0A
:101970004501B30ACA009309450183A70A004E96A0
:10198000184285072A89B354F7026362F706416556
:101990005288CE880143014E7D15832608009108A8
:1019A0001108B3F7A600C182B3879702B3869602E7
:1019B0009A9713D70701E98FB307FE40BA9603A79A
:1019C000C8FF13D30601E98E337EA700F297418347
:1019D000158F93D607413697135E0741E98F42076B
:1019E000D98F23AEF8FEE3FA0AFB1C42BDC74A8535
:1019F000EF10901563460504C16685044E86814547
:101A0000FD1603250A001C4211063377D500998D77
:101A100033F7D7002E97C183418193550741898FB2
:101A2000AE9793D50741758FC207D98F110A232E20
:101A3000F6FEE3F84AFD93172400CE9798431DC79E
:101A40002685F2406244D2444249B249224A924A2F
:101A5000056182801C4289E77D147116E3ECC9FEA2
:101A60002328890069B7984309E77D14F117E3EC4F
:101A7000F9FE23288900E9B70145E1B735713EDC5D
:101A80005C5122CD26CB4AC94EC756C35AC106CF98
:101A900052C5DEDEE2DCE6DAEAD8EED636CA3AD065
:101AA00046D2AA84AE8A32844289AE89328B9DEBBB
:101AB0004145EF10000FC8D011ED97460000938606
:101AC000A61A01469305A00E174500001305451BF5
:101AD000EF20400B232205002324050023200500CE
:101AE00023260500DC508C4389CDD84385472685C5
:101AF000B397E7009CC5D8C1EF10E02FDC5023A0BE
:101B0000070063520404854706042320F900135B91
:101B10001400B707F07F3377FB006314F7066257B2
:101B20008967320B9387F770135BCB001CC3B36AD2
:101B30005B01E3820A34925791EB97470000938749
:101B400067123EC639A823200900E1B79747000075
:101B5000938747113EC6974700009387D7101257C7
:101B60001CC3FA406A443245DA444A49BA492A4A0F
:101B70009A4A0A4BF65B665CD65C465DB65D0D61C3
:101B80008280014681465685DA8556D65AD8EF209E
:101B9000305705E1625785471CC39747000093877C
:101BA00067033EC69257D5DF974700009387970299
:101BB0007DB7B808F4085A86D685268513594B0197
:101BC000EF10B0111379F97F664A2A84630609126F
:101BD000C2573255130919C09395C700B181B70791
:101BE000F03FDD8D82C097E7FF0F9387276090431A
:101BF000D443EF30603097E7FF0F9387A75F9043A0
:101C0000D443EF20506B97E7FF0F9387275F9043F4
:101C1000D443EF20401AAA8B4A85AE8AEF303019A0
:101C200097E7FF0F9387075E9043D443EF20B06898
:101C30002A86AE865E85D685EF20E017AA8BAE8A0F
:101C4000EF30B010AA8D014681465E85D685EF2023
:101C5000305C635B05006E85EF3070155E86D6865E
:101C6000EF20104A11C1FD1D0547D9473ADA63E359
:101C7000B70313973D00974700009387A714BA97BF
:101C80009043D4433255C255EF209058635305001A
:101C9000FD1D02DA33092A41130CF9FF814B63560B
:101CA0000C00854BB38B2B41014C63C80D086E9C17
:101CB0006ED4814C5247A54763E5E70E9547054929
:101CC00063D6E7009307C7FF3ECA014952479147D1
:101CD000630BF7069547630AF70A89476305F70A16
:101CE0008D4702CE6305F70A85473ECEFD573EC8B5
:101CF0007D5DC94702D095A07649930700025299AD
:101D00009305294363D6B702130500040D8D93058F
:101D100029413315AB00B3DABA0033655501EF3012
:101D2000700FB70710FEBE9585477D19BEC065BD13
:101D30003385B7403395AA00DDB7B38BBB41B30CF5
:101D4000B04102D485BF85473ECE8257634EF00432
:101D5000854705473EC8054D3AD0D450114723A2C8
:101D6000060013064701CC4263F4C7042685EF0042
:101D7000D07D2AC631E1974600009386A6F501463C
:101D80009305A01A91B302CEC9B785473ECE8257BC
:101D9000EE973EC8138D1700EA87E340A0FD854704
:101DA0006DBF054902CA89B782573EC83E8D75B7D7
:101DB0008505CCC2060775B7DC50324798C3B947D2
:101DC00063E8A71363060912635AB01B13F7FD00FB
:101DD00093173700174700001307C7FE3E9713D924
:101DE0004D401C43832A470013770901094A15C354
:101DF00017470000130787FA105354533255C25542
:101E00003ECC1379F900EF20A05BE247AA892E8B24
:101E10000D4A17470000130767F8631F09124E8524
:101E20003E86D686DA85EF20A059AA892E8BD25716
:101E3000638B071A97E7FF0F9387473D9043D4437F
:101E40004E85DA85EF20D03C635F051863000D1ADC
:101E5000C247635DF0089387FDFF3ECC97E7FF0F15
:101E60009387473B9043D4434E85DA85EF20B044B7
:101E70004248AA892E8B050A5285C2C45ADECEC2B8
:101E8000EF30E072DA864E86EF20F04297E6FF0FE1
:101E90009386C6389042D4425A89CE8AEF10B071E8
:101EA0002648B708C0FC2A8B338AB800631308148D
:101EB00097E6FF0F938606379042D4424E85CA8537
:101EC000EF3080035A86D286AA892E89EF20F02926
:101ED000634BA05AB7070080B3C747015A86BE8636
:101EE0004E85CA85EF20D032634C0558B259425B0B
:101EF000F64763C8073639476345B73713973D0040
:101F000097470000938707ECBA9703AA070083AAB4
:101F10004700825763D10726634FA02563120D56F1
:101F200097E7FF0F938707309043D4435285D685B8
:101F3000EF2070384E86DA86EF203023014A0149BF
:101F400063580550B2473247850D938917009307B0
:101F500010032300F70009A39376190081CE1043E4
:101F600054433E85D6853ACCEF20F0346247050ACB
:101F7000AA87AE8A13591940210745B5094AE38853
:101F80000DEA3309B0419377F9001397370097476B
:101F90000000938727E3BA979043D4433255C25544
:101FA00013594940974A0000938A4ADFEF20B03026
:101FB000AA87AA892E8B014763160900E30907E661
:101FC000BE89ADB59376190099CA03A60A0083A607
:101FD0004A003E85050AEF20102EAA8705471359AF
:101FE0001940A10AD1BF6ECC6A8879B56ECC014880
:101FF00061B59307F8FF1397370097470000938761
:1020000067DCBA979043D443B247C2973EDEF247AB
:10201000C5CB97E7FF0F93876721CC43AAC28843BC
:10202000EF20003A5A86D286EF20106DB2492A8AF4
:102030002E8BCA855685EF304051AAC2EF3020570B
:102040002A86AE865685CA85EF20106B964785098D
:10205000528693870703A38FF9FEDA862A89AE8A10
:10206000EF20101B634C050E97E7FF0F9387071AAD
:102070008843CC434A86D686EF2010685286DA869B
:10208000EF20101963470518F257E381F9E697E747
:10209000FF0F938727189043D4435285DA85EF20AA
:1020A000902197E7FF0F9387E7169043D4432A8A3E
:1020B0002E8B4A85D685EF201020AA8A2E8995BFBF
:1020C000D285EF20501FF257B249AAC42E8BBEC250
:1020D000CA855685EF306047AAC6EF30404D2A8644
:1020E000AE865685CA85EF203061B64785092A8AB3
:1020F00093870703A38FF9FEF2572E896392F9069F
:1021000097EAFF0F938A8A1203A60A0083A64A0061
:102110002645DA85EF10304A2A86AE865285CA8572
:10212000EF20B0046347A00E264603A50A0083A54E
:102130004A00DA86EF20505C2A86AE865285CA8530
:10214000EF20100DE35405DA930700039649138737
:10215000F9FFBAC203C7F9FFE30AF7FEE24D49A847
:1021600097E7FF0F9387070B9043D443EF20B014FA
:10217000AA8A2E89B1BFB2475A8CCE8C138B170016
:102180003E9D97EBFF0F938BEB085286D6866685B4
:10219000E285EF20E022EF30403B2A89EF302041FA
:1021A0005286D686EF203011AE862A86E285668575
:1021B000EF20905493060903A30FDBFEDA89631323
:1021C0006D092A86AE86EF10103F5286D686AA8BFE
:1021D0002E8BEF208079634DA0025286D6865E85D5
:1021E000DA85EF20E07109E513791900631209021D
:1021F0002685A285EF003040E25723800900138531
:102200001D0088C39257E38E079423A0370191BA2B
:102210006ECCCE8713079003BE8983C6F7FFFD17E8
:10222000639CE600B246E399F6FE624705073ACCA6
:10223000130700032380E60003C707000507238078
:10224000E70029BF03A60B0083A64B00050BEF2078
:10225000900601468146AA8C2E8CEF20606A15F507
:1022600041BF724763000710D24605476345D70C4C
:1022700006479387374309E7664793076003998FBB
:10228000668ADE8A85452685BE9B3E9CEF005053BC
:102290002A89635E5001635C8001D68763535C01C9
:1022A000E287B38BFB40B38AFA40330CFC40638176
:1022B0000C04F247C5CF63544003CA855286268575
:1022C000EF00506B2286AA852A892685EF00B0523E
:1022D0002ACCA2852685EF001032E2473E84338661
:1022E0004C4163874C01A2852685EF00B0682A84A3
:1022F00085452685EF00D04CA2572A8A635AF006FE
:102300003E86AA852685EF00F066524785472A8AD1
:10231000814C63C7E706814C639109069317CB0094
:10232000A9EFB705F07F337BBB0063080B04850B77
:10233000050C854C99A0130AFDFF63CA4C01338A32
:102340004C41635E0D00B38AAB41814725BFA25764
:10235000B30C9A41E6973ED4D28C014ADDB7DE8AAF
:10236000EA870DB7668ADE8A014925B76686A5BF6A
:1023700052478547814CE3D0E7FAA257054589CFFC
:1023800083270A018D078A07D297C843EF00503888
:10239000930700023385A74062957D8951C1930759
:1023A0000002898F1147635AF706F1473385A7402A
:1023B000AA9BAA9A2A9C63587001A2855E862685EC
:1023C000EF0050682A8463588001D2856286268592
:1023D000EF0050672A8AD257B1C7D2852285EF0015
:1023E000B07663510504A285814629462685EF0013
:1023F0009026F247FD1D2A84638D0728CA858146F1
:1024000029462685EF003025C2472A896345F00812
:102410005247894763CFE700BDA8E38EE7F83E85C2
:10242000710579B76345A0075247894763D1E7062D
:102430006AC8C24791EFD285814615462685EF00CE
:1024400090212A8AAA852285EF001070E34CA0AE65
:102450008257B24993CDF7FF014BD2852685EF0015
:102460009019E30709D863080B0063062B01DA858E
:102470002685EF005018CA852685EF00D0178DBB42
:10248000014A0149F1B7E24D014A014965BCF247F1
:102490006AC86387072063585001CA855686268517
:1024A000EF00505A2A894A8563800C04832549002D
:1024B0002685EF009009AA8A11E9974600009386C5
:1024C000668101469305A02E6FF00FE003260901F7
:1024D0009305C900310509060A06EF00C06E0546DE
:1024E000D6852685EF001056B24742474A8B138C9B
:1024F0001700BA973ECC93F719002A893EC8D285B7
:102500002285EFF0EFC4DA85AA8C930A05032285B1
:10251000EF009063D285AA8B4A862685EF0030664D
:102520005445130DFCFFAA85054799E62ACE22855E
:10253000EF009061F2452A8726853ACEEF00B00B76
:10254000D2477247E289B3E6E700C247DD8E81EEEB
:10255000130790036388EA0463547001938A1C0391
:1025600023005D01DDBD63CA0B00D247B3EB7701E9
:10257000C247B3EBFB0063980B04E353E0FEA28574
:1025800005462685EF00104CD2852A84EF00D05BEB
:102590006346A00071F513F71A0079D3130790036F
:1025A000E39EEAFA930790032300FD00CE8793068B
:1025B0009003BE8903C7F9FFFD176305D70A050716
:1025C0002380E70059BD635BE00013079003E38BB2
:1025D000EAFC93871A002300FD0041B5E247A30FF0
:1025E0005CFF63888705A285814629462685EF0022
:1025F00090062A8481462946DA85268563182B01B0
:10260000EF0070052A8B2A89050CD5BDEF00B004B8
:10261000CA852A8B814629462685EF00D0032A8960
:10262000E5B7C24785496353F000BE89B247014B05
:10263000BE99A28505462685EF00D040D2852A8422
:10264000EF009050E344A0F601E593F71A00B9FFBC
:10265000CE8713070003BE8983C6F7FFFD17E38CFF
:10266000E6FEE5BB3247E316F7F493071003850D4A
:102670002300F700DDB31257973700009387C75D3B
:102680003EC6973700009387A75D631A07CC6FF0AB
:102690004FCDC2476346F00052478947E3CBE7D8A6
:1026A0008149D2852285EFF0AFAAB247930A05038C
:1026B00033873701C247230057018509E3D3F9F671
:1026C000A285814629462685EF00E0782A84D1BF7D
:1026D00083D7C500011122CC26CA06CE4AC84EC6F1
:1026E00013F78700AA842E847DE3D8416347E00076
:1026F000B8416344E00001457DA858546DDF85660C
:1027000003A90400F58F23A00400ADCF68488357C8
:10271000C400918B99C75C401D8D5C5899C33C40A7
:102720001D8D5C540C502A86814626858297FD5764
:102730000357C400631DF5009440F54763E4D708D0
:10274000B70740208507B3D7D700858BA5CF1C4896
:10275000232204001CC085677D8F19C7FD576314B1
:10276000F5009C4091E368C84C5823A02401C1D5D2
:10277000930744046385F5002685EF005068232AFB
:10278000040295BF0C508546014626850297FD57E9
:10279000E31FF5F69C40A5DF75476385E7005947C1
:1027A0006395E70023A02401B9B78357C40093E7DA
:1027B00007042316F400F2406244D2444249B2496D
:1027C00005618280136707042316E400EDB783A92F
:1027D0000501E38209F203A905008D8B23A03501D1
:1027E00033093941014791E3D84918C4E35520F131
:1027F0001C540C50CA864E8626858297634AA000D8
:102800008357C4007D5593E707042316F40065B78A
:10281000AA993309A940D9BF9C49B9CF011122CC4B
:1028200006CE2A8411C51C4D81E72EC62122B24551
:10283000973700009387474D639BF5004C40839783
:10284000C50095C722856244F240056151B59737AE
:1028500000009387674D6394F5000C44CDB797371C
:10286000000093876748E39CF5FC4C44C9BFF240E5
:10287000624401450561828001458280411122C484
:1028800006C62A842316B5002317C5002320050099
:102890002322050023240500232205062328050002
:1028A000232A0500232C0500214681451305C50573
:1028B000CD2E971700009387C71E5CD09717000096
:1028C000938727211CD497170000938767255CD432
:1028D0009717000093872728B24000D01CD82244C5
:1028E0004101828097050000938545F399A241112B
:1028F00026C2130680069384F5FFB384C4024AC03F
:102900002E8922C406C693854407EF0030592A84D5
:1029100019C92320050023222501310508C4138687
:1029200084068145BD2EB24022852244924402494C
:10293000410182801C4DADE3411122C406C69707B8
:102940000000938767FA1CD5232405042326050479
:102950002328050483A701862A846314F50085478C
:102960001CCD22851D2848C02285052808C4228543
:102970002D2048C448400146914509370844054682
:10298000A545ED3D48440946C945CD3D8547B24082
:102990001CCC2244410182808280411126C283A442
:1029A00001869C4C4AC006C622C42A8999E3268522
:1029B0005137938484048044DC40FD1763D60700BC
:1029C0009C40B1CF8440C5BF0317C40031E7C17735
:1029D0008507232204062320040023220400232445
:1029E00004005CC423280400232A0400232C0400D0
:1029F000214681451305C4056D24232A0402232C96
:102A000004022324040423260404B2402285224421
:102A100092440249410182801304840679BF9145A2
:102A20004A85F13588C02A8451FDB1472320F90039
:102A3000E9BF797122D44AD04ECE52CC5AC85EC674
:102A400006D626D256CA2A892E8A130485048149BD
:102A5000054BFD5B0444832A4400FD1A63D00A023F
:102A600000406DF8B250225492540259624AD24A40
:102A7000424BB24B4E85F2494561828083D7C400F8
:102A8000637BFB008397E40063877701A6854A8513
:102A9000029AB3E9A90093848406C1B717D5FF0F42
:102AA0001305456B82805971CAD02E898395E50044
:102AB000A2D4A6D286D63284B68463DC05008317FE
:102AC000C90023A0040093F7070895E3930700408B
:102AD0000DA03000EF104013E34305FE3247BD6701
:102AE000F98F7977BA9793B717009CC0C5B793074A
:102AF0000004B6501CC02654965406590145656121
:102B0000828083D7C500011122CC06CE26CA4AC8CE
:102B1000898B2E8489CF930774041CC01CC88547F9
:102B20005CC8F2406244D24442490561828074002C
:102B300030002A898D3FA245AA844A85EF001036CD
:102B400001ED8317C40013F7072061FFF19B93E7A2
:102B500027002316F400C1B7970700009387C7D852
:102B60002324F9028357C40008C008C893E7070864
:102B70002316F400A2475CC8B24791CF8315E40046
:102B80004A85EF10000B01C98357C400F19B93E7FE
:102B900017002316F4000355C400C98C23169400B3
:102BA00049B7AA8503A5C1806F00502F93F5F50F93
:102BB0002A966314C5000145828083470500E38D92
:102BC000B7FE0505FDB7B3C7A5008D8BB306C500DD
:102BD00081E78D4763EEC700AA876371D50603C7F7
:102BE000050085078505A38FE7FEE3EAD7FE82800F
:102BF00013773500AA8711CB03C705008507850524
:102C0000A38FE7FE13F73700FDB713F7C6FF3308AE
:102C1000F74013060002634406032E883E86636B6A
:102C2000E6061388D7FF0146636607010D071D8F6F
:102C30001376C7FFB297B295E3E3D7FA828083A3F6
:102C4000050083A2450083AF850003AFC50083AEB6
:102C5000050103AE450103A3850183A8C50123A097
:102C6000770023A2570003A8050223A4F70123A697
:102C7000E70123A8D70123AAC70123AC670023AE2D
:102C80001701938747029385450223AE07FF330858
:102C9000F74051B78328080011061108232E16FFAC
:102CA000BDBF3D432A876373C3029377F700BDEF2F
:102CB000ADE5937606FF3D8ABA960CC34CC30CC7AC
:102CC0004CC74107E36BD7FE11E28280B306C340D5
:102CD0008A069702000096966780A6002307B70031
:102CE000A306B7002306B700A305B7002305B70066
:102CF000A304B7002304B700A303B7002303B7005E
:102D0000A302B7002302B700A301B7002301B70055
:102D1000A300B7002300B700828093F5F50F9396C8
:102D20008500D58D93960501D58D61B793962700C3
:102D30009702000096968682E78086FA9680C117F1
:102D40001D8F3E96E374C3F8A5B75C51411122C4B0
:102D500026C206C64AC02A84AE8495EB4145913509
:102D600048D011ED97360000938606F00146930592
:102D7000600617350000130525FDEF00B060232223
:102D80000500232405002320050023260500032930
:102D900044028327C9009DC7585093972400584781
:102DA000BA97884331E10549331999001306590050
:102DB0000A0685452285EF00300105C144C1232460
:102DC00025012DA01306100291452285EF00C07F3A
:102DD0005C502326A900DC47E1F30145B2402244C0
:102DE0009244024941018280184198C3232805007A
:102DF00023260500E5B75C51411122C426C206C650
:102E0000AA842E8495EB4145693BC8D011ED9736D5
:102E10000000938666E501469305A008173500007B
:102E2000130585F2EF001056232205002324050028
:102E3000232005002326050011C8D4505C401397B9
:102E40002700DC46BA97984318C080C3B24022449A
:102E5000924441018280011122CC4AC84EC603A986
:102E600005012E84B68993864501C16526CA06CE22
:102E7000AA8452C40145FD159C429106050533F70D
:102E8000B7003307C702C183B387C7024E971358F1
:102E900007016D8FC29793D90701C207BA9723AE76
:102EA000F6FEE34B25FD638C09041C446340F904E2
:102EB0004C4026858505513D2A8A11ED9736000044
:102EC000938646E101469305500B17350000130524
:102ED000A5E7EF00304B10489305C4003105090603
:102EE0000A06D531A28526853937528493074900D1
:102EF0008A07A29723A23701050923282401F2405B
:102F000022856244D2444249B249224A0561828004
:102F10004177698FAA87014519E3C2074145370701
:102F200000FF7D8F19E32105A207370700F07D8F91
:102F300019E311059207370700C07D8F19E30905D2
:102F40008A0763C9070037070040F98F050599E331
:102F50001305000282801C412A8793F6770085C200
:102F600093F617000145A1EE93F6270089C68583E5
:102F70001CC30545828089831CC3094582809396C2
:102F80000701C182014599E2C183414593F6F70FDC
:102F900099E22105A18393F6F70099E21105918347
:102FA00093F6370099E20905898393F6170081E6C5
:102FB0008583050599C31CC38280130500028280A6
:102FC000411122C42E84854506C6413311ED973642
:102FD0000000938626D001469305001417350000A3
:102FE000130585D6EF00103AB24040C92244054788
:102FF00018C94101828098491C4A011122CC4AC853
:1030000006CE26CA4EC652C42E8432896354F700B7
:1030100032842E89032A0401832909011C444C406F
:10302000B3043A0163D397008505053311ED973654
:103030000000938626CA01469305D0151735000077
:10304000130585D0EF001034930645011398240032
:103050003698B68763EA07051303440193152A00DF
:1030600013064901939829009A9593075401B29841
:10307000114E63E8F500338485402D147198130ECA
:103080004400C16EFD1E63651603635690008327DE
:10309000C8FF7118F1CFF240624404C94249D244DA
:1030A000B249224A0561828023A0070091075DB7DB
:1030B000832F0600B3FFDF01638B0F04B6839A8270
:1030C000014903A7020003A403009103337FD70142
:1030D000330FFF03B377D401418091023E9F935792
:1030E0000701B387F7034A9F13570F01337FDF01AF
:1030F000A297BA9713D90701C207B3E7E70123AE36
:10310000F3FEE3E0B2FCB387C60123A0270183539B
:103110002600638C03049C42B68F1A8F81420327DA
:103120000F0003D42F00B3F7D7013377D70133074C
:103130007702910F110F2297169793120701B3E7A9
:10314000F20023AEFFFE8357EFFF83A20F004183FF
:10315000B3877702B3F2D2019697BA9793D2070159
:10316000E36FBFFA3387C6011CC31106910621BF66
:10317000FD1421BF011126CA4AC84EC606CE22CC74
:1031800052C4937736002A89B284AE8981CFFD1765
:1031900017370000130787CF8A07BA9790438146F5
:1031A0005D39AA898984D1C48327490285EF4145C5
:1031B000EFF03F9F2322A90211ED9736000093867E
:1031C000A6AA01469305E01A173500001305C5B7F6
:1031D000EF00501B232205002324050023200500B7
:1031E00023260500032A490203248A0011E89305D7
:1031F00010274A85F1332324AA002A8423200500BE
:1032000093F7140091CBCE8522864A85ED332A8A26
:10321000CE854A85CD36D289858481CC084001E9A6
:103220002286A2854A85C13B08C0232005002A8446
:10323000C1BFF2406244D2444249224A4E85B2495B
:1032400005618280011122CC2E845AC0032B040117
:1032500026CACC41935456401C44269B4AC852C4AB
:1032600056C206CE4EC6AA8A3289130A1B0063C410
:1032700047035685EFF07FADAA890DE19736000030
:10328000938646A501469305901D1735000013054A
:10329000A5ABEF00300F85058607D1BF9307450129
:1032A000BE86014791066345970863D304008144B5
:1032B0008A04B38697001C48130744011376F9016A
:1032C0008A07BA9735CA130800023308C840B6887F
:1032D00081450843910811073315C500C98D23AEF8
:1032E000B8FE8325C7FFB3D50501E364F7FE1307D6
:1032F0005401114663E7E700818FAD17F19B1386F8
:103300004700B2968CC299C1130A2B007D1A23A8DC
:1033100049015685A285EFF01FAEF2406244D244C7
:103320004249224A924A024B4E85B2490561828047
:1033300023AE06FE0507BDB710431107910623AE65
:10334000C6FEE36BF7FED9B714499849AA873385BF
:10335000E6406395E6020A07D107D105B386E70088
:10336000BA95F116F115904298416307E6007D5534
:103370006366E60005458280E3E5D7FE82800111A1
:1033800022CC2E844AC8B2852A89228526CA06CE36
:103390004EC6B284553F15ED81454A85EFF0FF9A40
:1033A00011ED973600009386E6920146930520239F
:1033B0001735000013054599EF00C07C85471CC9EF
:1033C000232A0500F2406244D2444249B2490561D1
:1033D0008280854963460500A6878149A2843E8490
:1033E000CC404A85EFF07F9609E997360000938636
:1033F000668E01469305002465BF03A804011848A2
:103400009388440193162800930744010A07C16E6C
:1034100023263501C696BA9713064501514E01433E
:10342000FD1E3387C4011843B305C40103AF050073
:10343000B375D7019A953373DF01B3856540135F88
:103440000F01418313D305413307E7411A97135303
:103450000741B3F5D5014207330FC5014D8F110E5A
:103460002320EF0033078E00E36DF7FA9305540134
:10347000114763E7B700818FAD17F19B13874700B2
:10348000BA98416E3297BA8EC6857D1E63E2D50228
:103490001386D8FF814763E6C6008D06B3871641C1
:1034A000F19BBA97F11798431DC72328050119BF4F
:1034B0009C41910E910533F6C7011A9613530641AC
:1034C000C1839A9713D307413376C601C207D18FC0
:1034D00023AEFEFE65BF7D18F1B7797126D2AE84AA
:1034E000854522D44AD04ECE06D652CC3284B689F7
:1034F0003A89EFF09F8509ED972600009386867D37
:1035000001469305A030173500001305E5839D2D76
:10351000370710009307F7FFE18F51801374F47F92
:103520002A8A35E03EC6ADC4280026C4EFF0BFA20B
:10353000A24621CD324793070002898FB317F700C7
:10354000D58F3357A700232AFA003AC6B244232C5A
:103550009A00B3349000850423289A0039C41304D8
:10356000D4BC2A949307500323A089003385A74035
:103570002320A900B250225492540259F249528594
:10358000624A45618280D98F71BF232ADA007DBFEC
:103590006800EFF05F9CB247130505028544232ABB
:1035A000FA0085472328FA0055BF9307E5BC23A0FE
:1035B000F90093972400D297884B9604EFF05F951B
:1035C000898C232099007DB73287B3B7E5020111BA
:1035D00006CE22CC3386C50289CBB1471CC101443B
:1035E000F2402285624405618280B28532C67D2028
:1035F0002A847DD532468145EFF0AFEAD5B7D1CDEB
:1036000083A7C5FF011122CC06CE1384C5FF63D367
:1036100007003E942AC66D251387C1861C43324598
:1036200081EB2322040000C36244F240056151ADE6
:10363000637DF4001040B306C4006396D700944342
:10364000DC43B29614C05CC0F9BF3E87DC4399C32B
:10365000E37DF4FE14433306D700631F8600104059
:10366000B29614C33306D700E390C7FC9043DC4303
:10367000B29614C35CC34DBF6375C400B1471CC18F
:1036800065B71040B306C4006396D7009443DC438B
:10369000B29614C05CC040C341BF8280011126CAEB
:1036A00093843500F1984AC806CE22CC4EC6A104B8
:1036B000B1472A8963F0F404B14463EFB4024A8548
:1036C00001259386C18698423A8431E013840187AC
:1036D0001C4089E781454A85792E08C0A6854A8520
:1036E000592EFD5963183507B1472320F9004A8543
:1036F000C92B31A0E3D304FCB1472320F9000145D5
:10370000F2406244D2444249B249056182801C4081
:10371000858F63CE07022D466376F6001CC03E946B
:1037200004C029A05C40631287029CC24A85512BC9
:103730001305B4009307440061993307F540E30192
:10374000F5FC3A94898F1CC065BF5CC3C5B722875E
:103750004040A5BF130435007198E30385FCB30511
:10376000A4404A85092EE31D35FBBDBF1C46FD174D
:103770001CC663DA0700184E63C5E700A9476394C7
:10378000F5006FD09FF81C422E851387170018C2D2
:103790002380B7008280011122CC26CA4AC84EC6B7
:1037A00052C406CE2A89AE893284B304D6007D5A2B
:1037B00063149400014509A8834504004E864A8598
:1037C00075370504E31645FFF2406244D24442498E
:1037D000B249224A05618280357122CD26CB4AC981
:1037E0004EC706CF52C556C35AC1DEDEE2DCE6DA6A
:1037F000AA89AE843289368409C51C4D99E3EFF05D
:103800006F939727000093872750639CF40C83A441
:10381000490083D7C400A18BFDC79C48EDC793071F
:103820000002A304F1029307000302D22305F10270
:1038300022C6930B5002972A0000938AEA65054C32
:10384000294B4A848347040099C36391770FB30CD3
:103850002441630D2401E6864A86A6854E85253FD0
:10386000FD576307F51E9257E6973ED28347040043
:103870006380071EFD571309140002C802CE3ECA1A
:1038800002CCA309010482D483450900154656855C
:10389000EFF0CFB1C2471304190059E913F707013C
:1038A00009C713070002A309E10413F7870009C73A
:1038B0001307B002A309E104834609001307A0021D
:1038C0006380E608F2474A848146254603470400A0
:1038D00093051400130707FD6379E60AB5CA3ECEC7
:1038E00085A897270000938727446395F40083A455
:1038F000890005B7972700009387073FE39BF4F003
:1039000083A4C90039B7A6854E85EFD07FEC01D9D5
:103910007D55FA406A44DA444A49BA492A4A9A4AE1
:103920000A4BF65B665CD65C0D618280050419BFAC
:10393000330555413315AC00C98F3EC82289A9B75C
:10394000324793064700184336C6634907023ACE0A
:10395000034704009307E002631FF70403471400C2
:103960009307A002631BF702B247090413874700BD
:103970009C433AC663C107023ECA35A83307E040FC
:1039800093E727003ACE3EC8E1B7B38767032E849A
:103990008546BA9725BFFD57C5B7050402CA8146BB
:1039A000814725460347040093051400130707FDCC
:1039B0006378E606F1F2834504000D461725000002
:1039C0001305054EEFF08F9E11CD972700009387CA
:1039D000274D1D8D93070004B397A70042450504AA
:1039E0005D8D2AC88345040019461725000013057C
:1039F000654B130914002304B102EFF02F9B2DC176
:103A000097D7FFFF9387073895E74247B247137769
:103A1000071009CF91073EC69257D2973ED215B5EF
:103A2000B38767032E848546BA97ADBF9D07E19B98
:103A3000A107D5B7780097060000938606D626869C
:103A40000C084E85EFD0CFB3FD572A8AE316F5FC5C
:103A500083D7C40093F70704E39C07EA125555BDCA
:103A6000780097060000938646D326860C084E857C
:103A7000EFD01F8FD1BF411122C42A842E8523A2EB
:103A8000018606C6EFC00FFBFD576316F50083A73E
:103A9000418691C31CC0B240224441018280411141
:103AA00022C42E848395E50006C6292C63490500AF
:103AB0007C48AA977CC8B240224441018280835747
:103AC000C4007D777D17F98F2316F400EDB783D7F7
:103AD000C500011122CC26CA4AC84EC606CE93F7AD
:103AE0000710AA842E843289B68991C78395E50090
:103AF000894601469D228357C4007D777D17F98F43
:103B00008315E4002316F4006244F240CE864A8610
:103B1000B24942492685D24405613DA8411122C4DB
:103B20002E848395E50006C60D2AFD570357C40071
:103B3000631BF500FD77FD17F98F2316F400B240E3
:103B40002244410182808567D98F2316F40068C81A
:103B5000FDB78395E50095A0411122C42A842E85E6
:103B6000B285368623A2018606C6EFC06FEFFD57E9
:103B70006316F50083A7418691C31CC0B24022445E
:103B800041018280411183A7C180328806C6AA887C
:103B90002E87C847368697270000938727316317FB
:103BA000080097270000938727DD3E88C686972563
:103BB00000009385A5303520A12A411122C42A8412
:103BC0002E8523A2018606C6EFC0AFE0FD5763161F
:103BD000F50083A7418691C31CC0B2402244410135
:103BE0008280397132D436D62E863410AA8503A548
:103BF000C18006CE3AD83EDA42DC46DE36C6EFF069
:103C0000BFBDF24021618280411122C42A842E85E9
:103C1000B28523A2018606C6EFC0AFDCFD5763164E
:103C2000F50083A7418691C31CC0B24022444101E4
:103C30008280411122C42A842E8523A2018606C6D1
:103C4000EFC00FDCFD576316F50083A7418691C3D3
:103C50001CC0B240224441018280411122C42A8406
:103C60002E85B285368623A2018606C6EFC02FDADE
:103C7000FD576316F50083A7418691C31CC0B2406F
:103C800022444101828085E141116C00014511CA45
:103C9000795581CA834706009CC103450600333528
:103CA000A00041018280014519CA795589CA83471C
:103CB00006009CC1034506003335A0008280828047
:103CC00082808280411122C42A842E85B285368664
:103CD00023A2018606C6EFC0CFD3FD576316F500B9
:103CE00083A7418691C31CC0B24022444101828017
:103CF00091CD9307F00F63F7C7009307A0081CC18D
:103D00007D5582802380C5000545828001458280E3
:103D10004111194506C6AD200545EFC02FCC011154
:103D200022CC06CEFD472A8463F9B700D9471CC1CF
:103D30007D55F2406244056182807C412E8691C7A8
:103D400013972500BA97984319EB228532C6952020
:103D5000AA85228562443246F240056135A0854637
:103D60000145E308D7FCFD566316D700D9471CC0B0
:103D70000545C1B72E8523A007000297014555BF11
:103D8000AA8503A5C18061BF411122C42A842E8562
:103D9000B28523A2018606C6EFC0CFC6FD576316C3
:103DA000F50083A7418691C31CC0B2402244410163
:103DB00082806FC0AFC4370810007D180111B3773F
:103DC000B80013D745013378D80013D3460122CC6D
:103DD0008E071374F77F1357D5010E0826CAD98FA3
:103DE00093D4F5011357D6011373F37F06CE4AC857
:103DF0004EC6FD8233670701931535000E06330862
:103E000064406398D4226353000F63180302B366BF
:103E1000C700638306581305F8FF09E92E9633356A
:103E2000B600BA97AA97B2850544B9A89306F07F61
:103E3000631DD8001304F07F4DA29306F07F630E3C
:103E4000D418B7068000558F42859306800363CB54
:103E5000A608FD4663C2A606130800023308A84060
:103E6000B3160701B358A60033160601B3E61601D0
:103E70003336C000558E3357A7002E963335B60023
:103E80003E97B307A700B285370780007D8F630692
:103E9000071405041307F07F630DE448370780FF1C
:103EA0007D17F98F13F5150013D71500598D9395CC
:103EB000F701C98D858315A2930605FE93080002BC
:103EC000B356D700014863081501130800043305F1
:103ED000A8403318A7003366C8003336C000558E9B
:103EE000014761BF598E3336C000DDBF630B080A3E
:103EF000330583400DE4B3E6B700638306429306BF
:103F0000F5FF99E6B295BA9733B6C500B29729BFC7
:103F10001308F07F631D0501BA87B28521BF9306A0
:103F2000F07FE30BD3FEB7068000D58FAA8613057A
:103F300080036343D5067D45634BD5021308000219
:103F40003308D84033950701B3D8D500B3950501A0
:103F500033651501B335B0004D8DB3D7D700B30528
:103F6000C500BA9733B6C500B2971A8431BF13851E
:103F700006FE9308000233D8A700014563871601A7
:103F800013050004158D3395A7004D8D3335A00022
:103F90003365A8008147E1B733E5B7003335A000AA
:103FA000D5BF9306140013F5E67F3DE1B3E6B700F5
:103FB00029E4638B0636B366C70085C22E96BA978E
:103FC0003335B600AA97370780007D8FB28511C7B9
:103FD000370780FF7D17F98F054413F77500630CD1
:103FE000073413F7F50091466307D734138745006C
:103FF0003335B700AA97BA853DAE99DE598EE30BEB
:1040000006E28144B707400081451304F07F25A6EE
:104010001305F07F638DA6302E963335B600BA9720
:10402000AA971395F7010582B365C5008583368489
:104030006DB76356000D63110308B366C700638D47
:1040400006341305F8FF11E93386C54033B5C500C2
:10405000998F898FB2850544B1A09306F07FE30B59
:10406000D8DC9306800363C8A608FD4663CFA60488
:10407000130800023308A840B3160701B358A6007E
:1040800033160601B3E616013336C000558E33579A
:10409000A7003386C54033B5C5003387E740B30773
:1040A000A740B2853709800033F727011DD77D1956
:1040B00033F92701AE895DAA9306F07FE30FD4F0B0
:1040C000B7068000558F428569BF930605FE9308A9
:1040D0000002B356D7000148630815011308000415
:1040E0003305A8403318A7003366C8003336C00034
:1040F000558E014779BF598E3336C000DDBF630549
:10410000080C330583401DE833E8B700630808282E
:104110001308F5FF631B0800B305B640B307F7406B
:104120003336B600918FB6843DB79308F07F6310A5
:104130001503BA87B2851304F07F7DA01308F07FC2
:10414000E30903FF37088000B3E707012A88130556
:104150008003634605077D45634D05039308000210
:10416000B38808413395170133DE0501B395150176
:104170003365C501B335B0004D8DB3D70701B30525
:10418000A640B307F7403336B600918F1A84B68441
:1041900011BF130508FE130E0002B3D8A700014596
:1041A0006308C80113050004330505413395A700D2
:1041B0004D8D3335A00033E5A8008147C9B733E5FD
:1041C000B7003335A000D5BF130514001375E57F84
:1041D00025E933E8B7003365C70021E86318080014
:1041E0006302051CBA87B285B684C5BBE30705DE4A
:1041F0003388C540B3B805013385E7403305154121
:10420000B7088000B3781501638A0800B305B6408B
:10421000B307F7403336B600918FF9B7B365A800FE
:1042200063860518AA87C2854DBB63180800630121
:104230000518BA87B285B684F5BEE30D05BED1B3C5
:10424000B389C54033B535013389E7403309A94007
:10425000370580003375A90025C9B309B640B307F7
:10426000F740333636013389C740B6846304090604
:104270004A85EF10C062130785FFFD4763C2E7065A
:1042800093070002998F3319E900B3D7F900B3E718
:104290002701B395E900634F8706018F9306170046
:1042A0007D466345D60413070002158F3396E70059
:1042B00033D5D500B395E500498EB335B000D18D27
:1042C000B3D7D700014411BBB3E52901C5F181473C
:1042D0000144D9A84E85EF10805C1305050261BF2B
:1042E000930785FDB397F900814575B70517130648
:1042F000000233D7E70001456387C60013050004B9
:10430000158D3395A7004D8D3335A000B365A700FB
:1043100081474DBF198C370780FF7D17F98F75B91D
:10432000BA87B2852A8455B9BA87B2857DB113049C
:10433000F07F81478145370780007D8F11CB0504D1
:104340001307F07F630BE406370780FF7D17F98FB3
:104350001397D70113D53500598D1307F07F8D833F
:104360006319E4005D8D814709C5B7070800014561
:10437000814413174401B706F07FB207F24062444C
:10438000758FB183FE04D98F33E797004249D24439
:10439000B249BA8505618280428481B1BA87B2850B
:1043A0002A8499B581478145814471B78147EDBF22
:1043B00081458144B707400089B98147814549BF9C
:1043C00079714AD013D9450126D24ECE52CC5AC863
:1043D00062C49394C50006D622D456CA5EC6137929
:1043E000F97F2A8A328B368CB18093D9F501630428
:1043F00009089307F07F630AF90C935AD5018E04DC
:10440000B3E49A00B70A8000B3EA540113143500EC
:10441000130919C0814B1315CC009354C5001355D3
:104420004C019375F57F135CFC01F9C19307F07F94
:10443000638BF510139534009357DB015D8DB70442
:104440008000C98C931F3B00138515C081471397CB
:104450002B005D8F7D173946B3C68901B305A9408E
:104460006365E61017260000130686B90A0732971F
:10447000184332970287B3EAA40063820A069DC8F4
:104480002685EF10C041930755FF71476349F70236
:10449000F54A130485FFB38AFA40B3948400B35AF3
:1044A0005A01B3EA9A0033148A009305D0C03389C5
:1044B000A5408DB7EF10A03E13050502E9B79304A0
:1044C00085FDB31A9A000144CDB7B3EAA400638C0A
:1044D0000A002A84A68A1309F07F8D4B2DBF014460
:1044E0000149854B0DBF01441309F07F894B25B766
:1044F000B3EF640163820F069DC82685EF10203A52
:10450000AA85938755FF71476349F702F546938F54
:1045100085FF9D8E3395F401B356DB00B3E4A6000E
:10452000B31FFB019306D0C03385B64005B75A854B
:10453000EF10E03693050502E9B7138585FDB31446
:10454000AB00814FC5B7B3EF6401638B0F00DA8F07
:104550001305F07F8D47E5BD814401458547C5BD05
:1045600081441305F07F8947DDB563E65401639606
:104570009A2A6364F42B1396FA01135714009317C5
:10458000F40193DA1A003364E6001395840093D89B
:104590008F01B3E8A800418133DEAA02939E08018F
:1045A00093DE0E011357040113938F00B3FAAA028E
:1045B00072863388CE03C20A33675701637C0701D2
:1045C00046971306FEFF636717016375070113061D
:1045D000EEFF469733070741335EA702420441804E
:1045E0003377A702F2823388CE034207418F637C80
:1045F000070146979302FEFF636717016375070182
:104600009302EEFF46973304074142064168B362C6
:104610005600130EF8FF13D6020133F7C201135FE1
:104620000301337EC301B303EE02B304C6033307B1
:10463000EF02B30FE6033306970013D70301329757
:1046400063739700C29F135607017E96C16FFD1FCB
:104650003378F7014208B3F3F3011E986367C4008F
:104660009684631EC40263FC07039A9733B76700FE
:1046700046973A949384F2FF63E688006391880238
:1046800063EF67006366C400631B860063F907017C
:104690009A9733B7670046979384E2FF3A9433883A
:1046A0000741118CB3B707011D8CFD5F6387880E2E
:1046B000B35FA402135708013374A4027E86B38744
:1046C000FE034204598C637CF40046941386FFFF7A
:1046D000636714016375F4001386EFFF46941D8C25
:1046E0003357A4024208135808013374A402BA874E
:1046F000B38EEE02420433648800637CD401469496
:104700009307F7FF636714016375D4019307E7FF0D
:10471000469442065D8E93170601C1831357060126
:104720003308EF023304D441330FFF02B38EC703C3
:10473000330EC70393D70E01729FFA9763F4C70134
:1047400041673A9813D70701429741687D1833F5BE
:1047500007014205B3FE0E0176956366E400631F10
:10476000E418B28F1DC94694930FF6FF63611403DA
:104770006366E4006313E418637DA30093171300DA
:1047800033B367009A98930FE6FF46943E83631411
:10479000E4006304650093EF1F009387F53F635BBC
:1047A000F00A13F77F0001CF13F7FF0011466308EB
:1047B000C70013864F00B33FF601FE94B28F370750
:1047C0000001658F19C7B70700FFFD17FD8C9387A0
:1047D00005401307E07F6342F70693DF3F0013971E
:1047E000D4013367F70113D53400D2073706F07FC1
:1047F0003205B2502254F18F31815D8DFE06B367D0
:10480000D50092540259F249624AD24A424BB24B05
:10481000224C3A85BE8545618280FD158147B5B33E
:10482000CE86D684A28FDE870D47638AE70A0547C6
:10483000638EE70A0947E392E7F6014501479307CC
:10484000F07F65B7E286CDB7B7040800814F814697
:104850008D47D9BF05451D8D130780036348A70801
:104860007D476349A7049385E541B397B40033D7E7
:10487000AF00B395BF00D98FB335B000CD8F33D51E
:10488000A40013F7770001CF13F7F7001146630870
:10489000C70013874700B337F7003E95BA8737073D
:1048A0008000698F39E71317D5018D835D8F0D81E6
:1048B000814725BF0557B307F74013060002B3D75A
:1048C000F40001476306C5001387E5433397E4000E
:1048D0003367F7013337E000D98F01455DB73705FE
:1048E000080001479307F07F814601B70145014762
:1048F000C1B7014501478547CDBD7E86B28F61BDF9
:1049000013D74501B7071000FD1713D846012A83B6
:10491000AA8E1377F77F1305F07FB3F8B700328FB5
:10492000F58FFD811378F87FFD82631AA70033EEBF
:104930006800054563140E006305E8008280631576
:10494000A8005D8E05457DFA0545E31907FFE3974D
:10495000F8FEE395EEFF6388D5006DF333E568005C
:104960003335A000828001458280370710007D1713
:1049700013D84501B378B700AA872A831378F87F44
:1049800013D5F501930EF07F93D54601758F328EC6
:1049900093F5F57FFD826318D801B3EEF8006384C8
:1049A0000E06795582806396D501B36EC700E39AEF
:1049B0000EFE631C0804B3E7F80093B7170099E1F3
:1049C000598E0DCE81EB6314D50063D905010DC559
:1049D0007D5582807D5591C6368582806354B800AE
:1049E00065D98280E36517FF639CE800E3616EFE92
:1049F000E368C3FF0145828005458280E5FFC1BFB2
:104A0000E3E0E8FEC5BFE38205FBD5FD81474DBF6E
:104A1000370710007D1713D84501B378B700AA8770
:104A20002A831378F87F13D5F501930EF07F93D581
:104A30004601758F328E93F5F57FFD826318D8019C
:104A4000B3EEF80063840E06094582806396D501B3
:104A5000B36EC700E39A0EFE631C0804B3E7F800C8
:104A600093B7170099E1598E0DCE81EB6314D500F1
:104A700063D905010DC57D5582807D5591C636856A
:104A800082806354B80065D98280E36517FF639C18
:104A9000E800E3616EFEE368C3FF014582800545DF
:104AA0008280E5FFC1BFE3E0E8FEC5BFE38205FB0E
:104AB000D5FD81474DBF79714ECE93D9450122D4A2
:104AC00026D252CC56CA5EC69394C50006D64AD0AA
:104AD0005AC893F9F97F2A84B28BB68AB18013DA67
:104AE000F501638109089307F07F6385F90C9357FB
:104AF000D5018E04DD8CB7078000DD8C13193500DD
:104B0000938919C0014B13D54A011394CA00137538
:104B1000F57F318093DAFA0161C19307F07F630575
:104B2000F51093D7DB010E045D8CB70780005D8C18
:104B3000130515C093973B00014793162B00D98EA0
:104B40004E95FD16394833465A0193051500636E9C
:104B5000D80E171500001305654E8A06AA969442D2
:104B6000AA96828633E9A400630F09048DC82685BE
:104B7000EF00F052130755FFF14763C7E702F5470F
:104B8000130985FF998FB3942401B357F400DD8C8A
:104B9000331924019309D0C0B389A940A5B7EF0008
:104BA000105013050502F9B7930485FDB314940062
:104BB0000149CDB733E9A400630B09002A899309A1
:104BC000F07F0D4B89B781448149054B2DBF81444E
:104BD0009309F07F094B05BFB3677401B1CF0DC8CE
:104BE0002285EF00D04B930655FFF14763C8D702EB
:104BF0007547930785FF158F3314F40033D7EB0007
:104C0000598CB397FB001307D0C03305A7402DB7CD
:104C10005E85EF00D04813050502F1B7130485FD4A
:104C200033948B008147C5B7B367740191CBDE879E
:104C30001305F07F0D4711B7014401450547F5BD48
:104C400001441305F07F0947CDBD416F930EFFFF6F
:104C50001357090193D807013379D901B3F7D70165
:104C600033882803B306F902B30FF7023303F801C0
:104C700013D806011A98330E17036373F8017A9E4E
:104C8000935308013378D801B3F6D601135F0401BA
:104C9000B372D40142083698B30E5702B3065902D4
:104CA00033092F033303D90113D906011A993307A6
:104CB000E7036374D90141631A97935E0901C169DF
:104CC000BA9E1387F9FF3379E900F98E13D40401F2
:104CD0004209F98C338797023699CA933303F40259
:104CE000B3869802B3878802B3886600935607019B
:104CF000C69663F36600CE9793D80601C169B38F59
:104D0000F8009387F9FFB3889202FD8E7D8FC2066B
:104D1000BA96B3075402B3049F0233038F02BE94C2
:104D200013D40801A29463F3F4004E93C167FD17F6
:104D300033F7F400B3F8F80042071E9E4697333964
:104D40002E01769733042701369EB336DE00B30872
:104D5000F401338FD8003337D70133342401598C11
:104D6000C180B3B8F801B336DF002694B3E6D800AB
:104D700036941A9493577F0126045D8C93179E00F6
:104D8000B3E70701B337F000135E7E0113179F00EE
:104D9000B3E7C701D98F37070001618F4DCB13D718
:104DA0001700858BD98F1317F401D98F058093864F
:104DB000F53F6350D00A13F7770001CF13F7F700E0
:104DC00011456308A70013874700B337F7003E94E7
:104DD000BA8737070001618F19C7370700FF7D17B2
:104DE000798C938605401307E07F634ED70E13D767
:104DF00037009317D401D98F0D80139746013204E1
:104E0000B706F07F758F3180598C7E06B2503367BC
:104E1000C400225492540259F249624AD24A424B87
:104E2000B24B3E85BA854561828052862684CA8708
:104E30005A8789466309D70A8D46630FD708854686
:104E4000E317D7F6014481479DA05686DDB7AA85B2
:104E5000B9BF0545158D13078003E345A7FE7D47C0
:104E60006349A7049385E5413317B400B3D6A7007F
:104E7000B397B700558FB337F000D98F3354A400E0
:104E800013F7770001CF13F7F70091466308D700B7
:104E900013874700B337F7003E94BA87370780007F
:104EA000618F39E71317D4018D83D98F0D80814627
:104EB000A9B70557158F130800023357E400814640
:104EC000630605019385E543B316B400D58FB33768
:104ED000F000D98F01446DB737040800814793066D
:104EE000F07F014619BF014481479306F07F31B737
:104EF00001448147854611B7370810007D1801111C
:104F0000B377B80013D745013378D80013D34601DF
:104F100022CC8E071374F77F1357D50126CAD98F79
:104F200093D4F5011357D601931535000E0806CE1C
:104F30004AC84EC61373F37F1305F07FFD823367B3
:104F400007010E066315A3003365C70019E193C678
:104F5000160033086440639896226353000F631869
:104F60000302B366C700638106581305F8FF09E919
:104F70002E963335B600BA97AA97B2850544B9A8DC
:104F80009306F07F631DD8001304F07F4DA29306B3
:104F9000F07F630ED418B7068000558F42859306C4
:104FA000800363CBA608FD4663C2A6061308000271
:104FB0003308A840B3160701B358A60033160601FC
:104FC000B3E616013336C000558E3357A7002E9630
:104FD0003335B6003E97B307A700B2853707800088
:104FE0007D8F6306071405041307F07F630BE44805
:104FF000370780FF7D17F98F13F5150013D71500BC
:10500000598D9395F701C98D858315A2930605FEE9
:1050100093080002B356D70001486308150113082E
:1050200000043305A8403318A7003366C8003336A0
:10503000C000558E014761BF598E3336C000DDBFB9
:10504000630B080A330583400DE4B3E6B7006381C0
:1050500006429306F5FF99E6B295BA9733B6C500B6
:10506000B29729BF1308F07F631D0501BA87B28587
:1050700021BF9306F07FE30BD3FEB7068000D58FE8
:10508000AA86130580036343D5067D45634BD5028D
:10509000130800023308D84033950701B3D8D50070
:1050A000B395050133651501B335B0004D8DB3D708
:1050B000D700B305C500BA9733B6C500B2971A84B6
:1050C00031BF138506FE9308000233D8A7000145BF
:1050D0006387160113050004158D3395A7004D8DC8
:1050E0003335A0003365A8008147E1B733E5B70049
:1050F0003335A000D5BF9306140013F5E67F3DE1DC
:10510000B3E6B70029E463890636B366C70085C2F3
:105110002E96BA973335B600AA97370780007D8F51
:10512000B28511C7370780FF7D17F98F054413F744
:105130007500630A073413F7F50091466305D73409
:10514000138745003335B700AA97BA852DAE99DE8F
:10515000598EE30B06E28144B707400081451304F2
:10516000F07F15A61305F07F638BA6302E9633359E
:10517000B600BA97AA971395F7010582B365C500E3
:10518000858336846DB76356000D63110308B366DB
:10519000C700638B06341305F8FF11E93386C54059
:1051A00033B5C500998F898FB2850544B1A09306A8
:1051B000F07FE30BD8DC9306800363C8A608FD46A6
:1051C00063CFA604130800023308A840B3160701F2
:1051D000B358A60033160601B3E616013336C000F5
:1051E000558E3357A7003386C54033B5C500338786
:1051F000E740B307A740B2853709800033F727019E
:105200001DD77D1933F92701AE895DAA9306F07F7A
:10521000E30FD4F0B7068000558F428569BF93062F
:1052200005FE93080002B356D70001486308150134
:10523000130800043305A8403318A7003366C800DC
:105240003336C000558E014779BF598E3336C000C2
:10525000DDBF6305080C330583401DE833E8B70064
:10526000630608281308F5FF631B0800B305B64062
:10527000B307F7403336B600918FB6843DB7930835
:10528000F07F63101503BA87B2851304F07F7DA009
:105290001308F07FE30903FF37088000B3E7070135
:1052A0002A8813058003634605077D45634D050382
:1052B00093080002B38808413395170133DE0501D6
:1052C000B39515013365C501B335B0004D8DB3D726
:1052D0000701B305A640B307F7403336B600918FF8
:1052E0001A84B68411BF130508FE130E0002B3D84A
:1052F000A70001456308C8011305000433050541F3
:105300003395A7004D8D3335A00033E5A8008147C4
:10531000C9B733E5B7003335A000D5BF1305140076
:105320001375E57F25E933E8B7003365C70021E849
:10533000631808006300051CBA87B285B684C5BB34
:10534000E30705DE3388C540B3B805013385E74080
:1053500033051541B7088000B3781501638A08004A
:10536000B305B640B307F7403336B600918FF9B7AF
:10537000B365A80063840518AA87C2854DBB63186E
:105380000800630F0516BA87B285B684F5BEE30D33
:1053900005BED1B3B389C54033B535013389E74084
:1053A0003309A940370580003375A9003DC5B3090D
:1053B000B640B307F740333636013389C740B68469
:1053C000630309064A85E129130785FFFD4763C189
:1053D000E70693070002998F3319E900B3D7F90064
:1053E000B3E72701B395E900634E8706018F930663
:1053F00017007D466344D60413070002158F3396C9
:10540000E70033D5D500B395E500498EB335B0003C
:10541000D18DB3D7D700014419BBB3E52901CDF134
:1054200081470144D1A84E859D291305050269BF16
:10543000930785FDB397F90081457DB705171306DE
:10544000000233D7E70001456387C6001305000457
:10545000158D3395A7004D8D3335A000B365A7009A
:10546000814755BF198C370780FF7D17F98FC1B170
:10547000BA87B2852A8465B9BA87B2854DB9130453
:10548000F07F81478145370780007D8F11CB050470
:105490001307F07F630BE406370780FF7D17F98F52
:1054A0001397D70113D53500598D1307F07F8D83DE
:1054B0006319E4005D8D814709C5B7070800014500
:1054C000814413174401B706F07FB207F2406244EB
:1054D000758FB183FE04D98F33E797004249D244D8
:1054E000B249BA8505618280428491B1BA87B2859A
:1054F0002A84A9B581478145814471B78147EDBFB1
:1055000081458144B707400099B98147814549BF2A
:10551000370710009307F7FF33F7B700D181F58FF6
:1055200093F5F57FD1821308F07F93F6F67F6395AC
:105530000501498F054509EB1307F07F0145639588
:10554000E600D18F3335F000828013D74501B706CE
:1055500010009387F6FF1377F77F1306E03FED8F78
:10556000FD816354E6041306D0416358E600370515
:1055700000801345F5FF2E958280D58F930630432A
:10558000998E7D46634DD6001307D7BEB397E700CB
:105590003355D5005D8D99C93305A0408280130530
:1055A0003041198D33D5A700FDB7014582804111E7
:1055B00006C622C426C221CD9357F54133C4A700A5
:1055C0001D8C9354F5012285D92C1307E041A9477E
:1055D000098F63C8A702AD47898F5505B357F400FB
:1055E0003314A4002685B2075207B1837E05D98FF4
:1055F000B24033E7A700228522449244BA85410194
:1056000082805515B317A40026850144E9BF0147E0
:105610008147E5BF411122C406C62A8421C1412425
:105620001307E041A947098F63C4A702AD47898FDB
:105630005505B357F4003314A400B2402285B207D5
:1056400022445207B183B366F700B68541018280D8
:10565000930755FFB317F4000144C5B781470147CD
:10566000E9BF79711C4522D44045584114413EC4DC
:105670003ECC931704013AC23ACAC18313171400EF
:1056800022C606D626D236C036C83ECE45837D8099
:10569000080870081C428326C6FF71168E07F58223
:1056A000D58F5CC2E318C5FEC246930717009395D9
:1056B0003600A166F9162EC8F58F638F0712F177B1
:1056C000938707403E979307E07F63C3E7166356CF
:1056D000E00462457246D2479356C5011206558EC4
:1056E00093964700CD8EF1831205B336D000C98F53
:1056F000DD8E32CA36C8C246D24713F67600630D35
:10570000061213F6F60091456308B612138646009A
:10571000B336D600B697B28605A29307C0FC63578E
:10572000F70002CA85473EC80147F1B7F247B708FC
:105730000800AA85B3E8F8009307D0033387E74051
:1057400046CE935757408146814403A805008506FD
:105750009105B3E40401E39AD7FE7D8B939627006D
:105760000DE38D459D8D3308D600032808000507FD
:10577000232006011106E3D8E5FE1147B307F740E1
:105780003DA8715E338EC70310103696032606FFC0
:10579000130800023308E84033160601D18C0D4689
:1057A000AA9601431D8E6349C3029146B387F64012
:1057B0000A061410369633D7E8002328E6FE114671
:1057C0001D8E8A073E950A068145EFD08FCD424750
:1057D000B3379000D98F81BF8C4283AE4600338FA0
:1057E000C601B3D5E500B39E0E01B3E5D501232074
:1057F000BF000503910645BF5246E2477245B366B6
:10580000F600C98ECD8E09E7B336D0008147F5B5D5
:10581000D1C29356C601120513964700F18337078C
:105820004000D18EC98FD98FE19A1307F07FF1B56F
:10583000814781461307F07F370680007D8E11CAAD
:1058400005071306F07F6309C704370680FF7D163E
:10585000F18F1396D7018D82D18E1306F07F8D8341
:105860006319C700DD8E814789C6B70708008146E6
:10587000014452073706F07FB207718FB1837E046F
:10588000D98FB25033E78700225492543685BA85B7
:1058900045618280814779BF814781465DBFC1678D
:1058A0006376F5029307F00FB3B7A7008E071307CF
:1058B00000021D8F3355F50097070000938787205E
:1058C0003E95034505003305A74082803707000158
:0A58D000C147E36EE5FCE147D9BFD4
:1058E0005472617020696E20457863657074696FC9
:1058F0006E0D00004D43415553453A203078256CDC
:10590000780D0A004D45504320203A203078256C10
:10591000780D0A004D5456414C203A203078256CC1
:10592000780D0A005472617020696E20496E7465AA
:1059300072727570740D000031343A34303A343379
:10594000000000004A756C202031203230323200D5
:1059500048756D6D696E67426972642053444B20CF
:105960004275696C642054696D653A2025732C205A
:1059700025730D0A00000000494C4D00446F776EFE
:105980006C6F6164204D6F64653A2025730D0A00C9
:10599000435055204672657175656E637920256C9C
:1059A0007520487A0D0A00002D2D2D2D2D2D2D2D21
:1059B0002D2D2D2D2D2D2D2D2D2D2D43444D4120C3
:1059C0006D6F76652066726F6D2D2D2D2D2D2D2D11
:1059D0002D2D2D2D2D2D0000416464723A20257847
:1059E00020202020202076616C75653A20256420D7
:1059F0000A0000002D2D2D2D2D2D2D2D2D2D2D2D81
:105A00002D2D2D2D2D2D2D43444D41206D6F76656F
:105A100020636F6D706C6574652D2D2D2D2D2D2DD2
:105A20002D2D2D2D2D2D00002D2D2D2D2D2D2D2D00
:105A30002D2D2D2D2D2D2D2D2D2D2D43444D412042
:105A40006D6F766520696E697469616C6C7920662A
:105A5000726F6D2D2D2D2D2D2D2D2D2D2D2D2D2DAF
:105A6000000000002D2D2D2D2D2D2D2D2D2D2D2D1A
:105A70002D2D2D2D2D2D2D43444D41206D6F7665FF
:105A800020696E697469616C6C7920746F2D2D2D9D
:105A90002D2D2D2D2D2D2D2D2D2D000043444D412F
:105AA00020456E67696E65206973206E6F7420698A
:105AB000646C652C20776169742031206D7300005F
:105AC00000010202030303030404040404040404A5
:105AD0000505050505050505050505050505050576
